:10000000020D2AAD07ED6401707A90FECCE054FE3B
:10001000F0E054FBF090FEC8E054FCF012050BFF3A
:1000200090FEC8E0548F4FF0900006120524FF9018
:10003000FECC30E00DE04401F090FEB1E04401F070
:10004000800BE054FEF090FEB1E054FEF0EF90FE25
:10005000CC30E10DE04404F090FEB1E04402F080C9
:100060000BE054FBF090FEB1E054FDF09000031261
:1000700005B2E5F090FED5F09000031205B290FEB7
:10008000D60203BDED6402707A90FECCE054EFF02E
:10009000E054BFF090FEC9E054FCF012050BFF9055
:1000A000FEC9E0548F4FF0900006120524FF90FE29
:1000B000CC30E20DE04410F090FEB1E04404F0805A
:1000C0000BE054EFF090FEB1E054FBF0EF90FECC6B
:1000D00030E30DE04440F090FEB1E04408F0800BC6
:1000E000E054BFF090FEB1E054F7F0900003120529
:1000F000B2E5F090FED7F09000031205B290FED862
:100100000203BDED6403707A90FECDE054FEF0E092
:1001100054FBF090FECAE054FCF012050BFF90FE79
:10012000CAE0548F4FF0900006120524FF90FECDD8
:1001300030E40DE04401F090FEB1E04410F0800B9B
:10014000E054FEF090FEB1E054EFF0EF90FECD30C1
:10015000E50DE04404F090FEB1E04420F0800BE0B7
:1001600054FBF090FEB1E054DFF09000031205B2B2
:10017000E5F090FED9F09000031205B290FEDA028D
:1001800003BDED6404707A90FECDE054EFF0E054CE
:10019000BFF090FECBE054FCF012050BFF90FECBBD
:1001A000E0548F4FF0900006120524FF90FECD30F2
:1001B000E60DE04410F090FEB1E04440F0800BE02A
:1001C00054EFF090FEB1E054BFF0EF90FECD30E779
:1001D0000DE04440F090FEB1E04480F0800BE0542C
:1001E000BFF090FEB1E0547FF09000031205B2E53D
:1001F000F090FEDBF09000031205B290FEDC0203EB
:10020000BDED6480704F90000512052490FEDEF075
:100210009000011205B2E5F090FED2F090000112BC
:1002200005B290FED3F090000812052490FEDDB4D4
:100230000106E04480F08004E0547FF09000071253
:10024000052490FEC0B40106E04401F08004E054AF
:10025000FEF07F0022ED6405705690FEECE054FE47
:10026000F090FEE8E054FCF012050BFF90FEE8E091
:10027000548F4FF090000612052490FEEC30E00DF4
:10028000E04401F090FEB5E04401F0800BE054FE44
:10029000F090FEB5E054FEF09000031205B2E5F0D8
:1002A00090FEF5F09000031205B290FEF60203BD39
:1002B000ED6406705690FEECE054EFF090FEE9E03D
:1002C00054FCF012050BFF90FEE9E0548F4FF090C4
:1002D000000612052490FEEC30E20DE04410F09090
:1002E000FEB5E04404F0800BE054EFF090FEB5E082
:1002F00054FBF09000031205B2E5F090FEF7F09089
:1003000000031205B290FEF80203BDED64077055BC
:1003100090FEEDE054FEF090FEEAE054FCF0120591
:100320000BFF90FEEAE0548F4FF090000612052478
:1003300090FEED30E40DE04401F090FEB5E0441095
:10034000F0800BE054FEF090FEB5E054EFF090002A
:10035000031205B2E5F090FEF9F09000031205B229
:1003600090FEFA8058ED6408705790FEEDE054EF6F
:10037000F090FEEBE054FCF012050BFF90FEEBE07A
:10038000548F4FF090000612052490FEED30E60DDC
:10039000E04410F090FEB5E04440F0800BE054EFF4
:1003A000F090FEB5E054BFF09000031205B2E5F006
:1003B00090FEFBF09000031205B290FEFCF07F006F
:1003C00022ED6481704C90000512052490FEFEF031
:1003D0009000011205B2FDACF0EC90FEF2F0AF051A
:1003E000A3EFF090000812052490FEFDB40106E092
:1003F0004480F08004E0547FF090000712052490C0
:10040000FEE0B40106E04401F08004E054FEF07F19
:1004100000227FFF22E709F608DFFA8046E709F2AB
:1004200008DFFA803E88828C83E709F0A3DFFA8038
:1004300032E309F608DFFA8078E309F208DFFA8090
:100440007088828C83E309F0A3DFFA806489828A52
:1004500083E0A3F608DFFA805889828A83E0A3F25A
:1004600008DFFA804C80D280FA80C680D480698010
:10047000F28033801080A680EA809A80A880DA809B
:10048000E280CA803389828A83ECFAE493A3C8C5E8
:1004900082C8CCC583CCF0A3C8C582C8CCC583CCE8
:1004A000DFE9DEE7800D89828A83E493A3F608DF23
:1004B000F9ECFAA9F0EDFB2289828A83ECFAE0A339
:1004C000C8C582C8CCC583CCF0A3C8C582C8CCC57A
:1004D00083CCDFEADEE880DB89828A83E493A3F2BF
:1004E00008DFF980CC88F0EF60010E4E60C388F021
:1004F000ED2402B4040050B9F582EB2402B40400E8
:1005000050AF232345822390046573BB0106898283
:100510008A83E0225002E722BBFE02E32289828A1C
:1005200083E49322BB010CE58229F582E5833AF549
:1005300083E0225006E92582F8E622BBFE06E92583
:1005400082F8E222E58229F582E5833AF583E49395
:1005500022C2D5EC30E709B2D5E4C39DFDE49CFC92
:10056000EE30E715B2D5E4C39FFFE49EFE12070705
:10057000C3E49DFDE49CFC800312070730D507C34C
:10058000E49FFFE49EFE22BB010A89828A83E0F594
:10059000F0A3E022500687F009E71922BBFE07E32B
:1005A000F5F009E3192289828A83E493F5F0740156
:1005B0009322BB0110E58229F582E5833AF583E0B9
:1005C000F5F0A3E0225009E92582F886F008E6223A
:1005D000BBFE0AE92582F8E2F5F008E222E5832A6B
:1005E000F583E993F5F0A3E99322E88FF0A4CC8B8F
:1005F000F0A42CFCE98EF0A42CFC8AF0EDA42CFCD9
:10060000EA8EF0A4CDA8F08BF0A42DCC3825F0FD17
:10061000E98FF0A42CCD35F0FCEB8EF0A4FEA9F010
:10062000EB8FF0A4CFC5F02ECD39FEE43CFCEAA45C
:100630002DCE35F0FDE43CFC2275F008758200EF0C
:100640002FFFEE33FECD33CDCC33CCC58233C58204
:100650009BED9AEC99E58298400CF582EE9BFEEDBD
:100660009AFDEC99FC0FD5F0D6E4CEFBE4CDFAE48C
:10067000CCF9A88222B800C1B90059BA002DEC8B80
:10068000F084CFCECDFCE5F0CBF97818EF2FFFEE5C
:1006900033FEED33FDEC33FCEB33FB10D703994015
:1006A00004EB99FB0FD8E5E4F9FA227818EF2FFF55
:1006B000EE33FEED33FDEC33FCC933C910D7059B97
:1006C000E99A4007EC9BFCE99AF90FD8E0E4C9FAF3
:1006D000E4CCFB2275F010EF2FFFEE33FEED33FD7F
:1006E000CC33CCC833C810D7079BEC9AE899400AA2
:1006F000ED9BFDEC9AFCE899F80FD5F0DAE4CDFB20
:10070000E4CCFAE4C8F922BC000BBE0029EF8DF05E
:1007100084FFADF022E4CCF875F008EF2FFFEE3344
:10072000FEEC33FCEE9DEC984005FCEE9DFE0FD5F3
:10073000F0E9E4CEFD22EDF8F5F0EE8420D21CFEC7
:10074000ADF075F008EF2FFFED33FD400798500630
:10075000D5F0F222C398FD0FD5F0EA22EFD394072B
:1007600040037FFF2212050BFED3940340037FFF5B
:1007700022EF7041EE700B900001120524F45293A9
:10078000529412050BB4010B900001120524429300
:10079000F4529412050BFEB4020A900001120524D3
:1007A00042934294EEB4030D900001120524FEF42E
:1007B0005293EE4294EF6401704312050BFE700BEE
:1007C000900001120524F452915292EEB4010B9064
:1007D00000011205244291F4529212050BB4020A50
:1007E0009000011205244291429212050BB4030DB0
:1007F000900001120524FEF45291EE4292EF640241
:10080000704312050BFE700B900001120524F45288
:10081000955296EEB4010B9000011205244295F416
:10082000529612050BB4020A90000112052442955B
:10083000429612050BB4030D900001120524FEF43C
:100840005295EE4296EF6403704312050BFE700B57
:10085000900001120524F452B152B2EEB4010B9093
:10086000000112052442B1F452B212050BB4020A7F
:1008700090000112052442B142B212050BB4030DDF
:10088000900001120524FEF452B1EE42B2EF64046E
:10089000704312050BFE700B900001120524F452F8
:1008A000B352B4EEB4010B90000112052442B3F42C
:1008B00052B412050BB4020A90000112052442B38F
:1008C00042B412050BB4030D900001120524FEF48E
:1008D00052B3EE42B4EF6405704312050BFE700B89
:1008E000900001120524F452C952CAEEB4010B90D3
:1008F000000112052442C9F452CA12050BB4020ABF
:1009000090000112052442C942CA12050BB4030D1E
:10091000900001120524FEF452C9EE42CAEF6406AB
:10092000704312050BFE700B900001120524F45267
:10093000CB52CCEEB4010B90000112052442CBF453
:1009400052CC12050BB4020A90000112052442CBCE
:1009500042CC12050BB4030D900001120524FEF4E5
:1009600052CBEE42CCEF6407704312050BFF700BC5
:10097000900001120524F452E152E2EFB4010B9011
:10098000000112052442E1F452E212050BB4020AFE
:1009900090000112052442E142E212050BB4030D5E
:1009A000900001120524FFF452E1EF42E27F0022A1
:1009B000AF15AE14120D1AAB07AA06AF17AE16127A
:1009C0000D1A8E258F26AF19AE18120D1A8E278F8D
:1009D00028AF1BAE1A120D1A8E298F2AE515451461
:1009E0007F0060027F018F2BE51745167F006002B4
:1009F0007F018F2CE51945187F0060027F018F2D44
:100A0000E51B451A7F0060027F018F2EE52B700CDD
:100A1000E52C7008E52D7004E52E60047F0180024E
:100A20007F008F2F751C60AE02AF03EE3395E0FDA3
:100A3000FCE47BBF7A5DF9F81205EAE47B64FAF91D
:100A4000F8120C9C8E1F8F20E52B7F0060027F0325
:100A50008F227B007A00791C7F01120003751C60D5
:100A6000AE25AF26EE3395E0FDFCE47BBF7A5DF961
:100A7000F81205EAE47B64FAF9F8120C9C8E1F8FD9
:100A800020E52C7F0060027F0C8F227B007A0079AA
:100A90001C7F02120003751C60AE27AF28EE339551
:100AA000E0FDFCE47BBF7A5DF9F81205EAE47B64C3
:100AB000FAF9F8120C9C8E1F8F20E52D7F00600242
:100AC0007F308F227B007A00791C7F031200037530
:100AD0001C60AE29AF2AEE3395E0FDFCE47BBF7AC3
:100AE0005DF9F81205EAE47B64FAF9F8120C9C8EC1
:100AF0001F8F20E52E7F0060027FC08F227B007A4F
:100B000000791C7F04120003751D5D751EBFE4F59E
:100B100021852F24852F23FB7A00791C7F801200EA
:100B20000390FEB2E054FC4401F0E054F34404F0BE
:100B3000E054CFF0E0543FF0E4FBFD7F80020BCBAC
:100B40008E088F098C0A8D0B780C7C007D007BFF52
:100B50007A0D79467E007F081204E5E50B640145B5
:100B60000A7F0070027F01E50B450A7E0070027E5D
:100B700001EE4F6011C3E49509F50DE49508F50CFD
:100B8000850810850911E50BB4FF09E50AB4FF04D7
:100B90007F0180027F00E50B450A7E0070027E0126
:100BA000EE4F6011C3E49509F513E49508F512853D
:100BB000080E85090F78147C007D007B007A00798F
:100BC0000C7E007F081204E50209B0EFD394814047
:100BD000037FFF22EBD3940340037FFF22EF247FA8
:100BE000603004705890FEC4EDF0EB700653B6FB15
:100BF00053B5FBBB010653B6FB43B504BB0206432A
:100C0000B60453B5FBEB6403703843B60443B50434
:100C1000803090FEE4EDF0EB700653B6F753B5F775
:100C2000BB010653B6F743B508BB020643B60853EB
:100C3000B5F7BB030D43B60843B508800590FEE445
:100C4000EDF07F002278087C007D007BFF7A0D7933
:100C5000687E007F021204E57508037509807B0039
:100C60007A007908E4FF12075C7508037509047BB4
:100C7000007A0079087F0512075C75080375092062
:100C80007B007A0079087F0412075C7508037509F8
:100C9000807B007A0079087F0202075CC2D5E830C9
:100CA000E70FB2D5E4C39BFBE49AFAE499F9E49820
:100CB000F8EC30E717B2D5120CD2120675E4C39BDC
:100CC000FBE49AFAE499F9E498F880031206753087
:100CD000D50DE4C39FFFE49EFEE49DFDE49CFC2251
:100CE00078087C007D007BFF7A0D79667E007F02AC
:100CF0001204E57508037509087B007A0079087FFE
:100D00000502075C43BA80120CE0120C45D2AFE436
:100D1000FDFC7F32FE120B4080F57C007D02120547
:100D200051C374329FFFE49EFE22787FE4F6D8FD23
:100D300075812F020D04000000000000000000007B
:100D400000000000000000000000000000000000A3
:100D50000000000000000000000000000000000093
:0A0D60000000000000000000000089
:00000001FF
